{
  "_format": "hh-sol-artifact-1",
  "contractName": "VoteLedger",
  "sourceName": "contracts/VoteLedger.sol",
  "abi": [
    {
      "anonymous": false,
      "inputs": [
        {
          "indexed": false,
          "internalType": "string",
          "name": "voteId",
          "type": "string"
        },
        {
          "indexed": false,
          "internalType": "string",
          "name": "credentialHash",
          "type": "string"
        },
        {
          "indexed": false,
          "internalType": "string",
          "name": "receiptHash",
          "type": "string"
        },
        {
          "indexed": false,
          "internalType": "string",
          "name": "revotePointer",
          "type": "string"
        },
        {
          "indexed": false,
          "internalType": "uint256",
          "name": "timestamp",
          "type": "uint256"
        }
      ],
      "name": "BallotAnchored",
      "type": "event"
    },
    {
      "inputs": [
        {
          "internalType": "string",
          "name": "_voteId",
          "type": "string"
        },
        {
          "internalType": "string",
          "name": "_credentialHash",
          "type": "string"
        },
        {
          "internalType": "string",
          "name": "_receiptHash",
          "type": "string"
        },
        {
          "internalType": "string",
          "name": "_revotePointer",
          "type": "string"
        }
      ],
      "name": "anchorBallot",
      "outputs": [],
      "stateMutability": "nonpayable",
      "type": "function"
    },
    {
      "inputs": [
        {
          "internalType": "string",
          "name": "_voteId",
          "type": "string"
        }
      ],
      "name": "getBallot",
      "outputs": [
        {
          "components": [
            {
              "internalType": "string",
              "name": "voteId",
              "type": "string"
            },
            {
              "internalType": "string",
              "name": "credentialHash",
              "type": "string"
            },
            {
              "internalType": "string",
              "name": "receiptHash",
              "type": "string"
            },
            {
              "internalType": "string",
              "name": "revotePointer",
              "type": "string"
            },
            {
              "internalType": "uint256",
              "name": "timestamp",
              "type": "uint256"
            }
          ],
          "internalType": "struct VoteLedger.VoteBlock",
          "name": "",
          "type": "tuple"
        }
      ],
      "stateMutability": "view",
      "type": "function"
    },
    {
      "inputs": [],
      "name": "getLedgerSize",
      "outputs": [
        {
          "internalType": "uint256",
          "name": "",
          "type": "uint256"
        }
      ],
      "stateMutability": "view",
      "type": "function"
    },
    {
      "inputs": [
        {
          "internalType": "string",
          "name": "",
          "type": "string"
        }
      ],
      "name": "ledger",
      "outputs": [
        {
          "internalType": "string",
          "name": "voteId",
          "type": "string"
        },
        {
          "internalType": "string",
          "name": "credentialHash",
          "type": "string"
        },
        {
          "internalType": "string",
          "name": "receiptHash",
          "type": "string"
        },
        {
          "internalType": "string",
          "name": "revotePointer",
          "type": "string"
        },
        {
          "internalType": "uint256",
          "name": "timestamp",
          "type": "uint256"
        }
      ],
      "stateMutability": "view",
      "type": "function"
    },
    {
      "inputs": [
        {
          "internalType": "uint256",
          "name": "",
          "type": "uint256"
        }
      ],
      "name": "voteIds",
      "outputs": [
        {
          "internalType": "string",
          "name": "",
          "type": "string"
        }
      ],
      "stateMutability": "view",
      "type": "function"
    }
  ],
  "bytecode": "0x608060405234801561001057600080fd5b50610ce6806100206000396000f3fe608060405234801561001057600080fd5b50600436106100575760003560e01c806311aa4d311461005c57806334c1e0d214610071578063535d9b421461009a5780636270a42e146100be578063f51b539c146100de575b600080fd5b61006f61006a3660046108f0565b6100ef565b005b61008461007f36600461099d565b610294565b6040516100919190610a2a565b60405180910390f35b6100ad6100a836600461099d565b610548565b604051610091959493929190610ab6565b6100d16100cc366004610b16565b6107a1565b6040516100919190610b2f565b600154604051908152602001610091565b6000846040516100ff9190610b49565b908152604051908190036020019020805461011990610b65565b15905061016c5760405162461bcd60e51b815260206004820152601760248201527f42616c6c6f7420616c726561647920616e63686f726564000000000000000000604482015260640160405180910390fd5b60006040518060a00160405280868152602001858152602001848152602001838152602001428152509050806000866040516101a89190610b49565b908152604051908190036020019020815181906101c59082610bf0565b50602082015160018201906101da9082610bf0565b50604082015160028201906101ef9082610bf0565b50606082015160038201906102049082610bf0565b50608091909101516004909101556001805480820182556000919091527fb10e2d527612073b26eecdfd717e6a320cf44b4afac2b0732d9fcbe2b7fa0cf60161024d8682610bf0565b507f92963d813a5cf5bba1d5bf55ab7f65ae83d32c575e838d95b62ebb86d275eaf38585858542604051610285959493929190610ab6565b60405180910390a15050505050565b6102c66040518060a0016040528060608152602001606081526020016060815260200160608152602001600081525090565b6000826040516102d69190610b49565b90815260200160405180910390206040518060a00160405290816000820180546102ff90610b65565b80601f016020809104026020016040519081016040528092919081815260200182805461032b90610b65565b80156103785780601f1061034d57610100808354040283529160200191610378565b820191906000526020600020905b81548152906001019060200180831161035b57829003601f168201915b5050505050815260200160018201805461039190610b65565b80601f01602080910402602001604051908101604052809291908181526020018280546103bd90610b65565b801561040a5780601f106103df5761010080835404028352916020019161040a565b820191906000526020600020905b8154815290600101906020018083116103ed57829003601f168201915b5050505050815260200160028201805461042390610b65565b80601f016020809104026020016040519081016040528092919081815260200182805461044f90610b65565b801561049c5780601f106104715761010080835404028352916020019161049c565b820191906000526020600020905b81548152906001019060200180831161047f57829003601f168201915b505050505081526020016003820180546104b590610b65565b80601f01602080910402602001604051908101604052809291908181526020018280546104e190610b65565b801561052e5780601f106105035761010080835404028352916020019161052e565b820191906000526020600020905b81548152906001019060200180831161051157829003601f168201915b505050505081526020016004820154815250509050919050565b805160208183018101805160008252928201919093012091528054819061056e90610b65565b80601f016020809104026020016040519081016040528092919081815260200182805461059a90610b65565b80156105e75780601f106105bc576101008083540402835291602001916105e7565b820191906000526020600020905b8154815290600101906020018083116105ca57829003601f168201915b5050505050908060010180546105fc90610b65565b80601f016020809104026020016040519081016040528092919081815260200182805461062890610b65565b80156106755780601f1061064a57610100808354040283529160200191610675565b820191906000526020600020905b81548152906001019060200180831161065857829003601f168201915b50505050509080600201805461068a90610b65565b80601f01602080910402602001604051908101604052809291908181526020018280546106b690610b65565b80156107035780601f106106d857610100808354040283529160200191610703565b820191906000526020600020905b8154815290600101906020018083116106e657829003601f168201915b50505050509080600301805461071890610b65565b80601f016020809104026020016040519081016040528092919081815260200182805461074490610b65565b80156107915780601f1061076657610100808354040283529160200191610791565b820191906000526020600020905b81548152906001019060200180831161077457829003601f168201915b5050505050908060040154905085565b600181815481106107b157600080fd5b9060005260206000200160009150905080546107cc90610b65565b80601f01602080910402602001604051908101604052809291908181526020018280546107f890610b65565b80156108455780601f1061081a57610100808354040283529160200191610845565b820191906000526020600020905b81548152906001019060200180831161082857829003601f168201915b505050505081565b634e487b7160e01b600052604160045260246000fd5b600082601f83011261087457600080fd5b813567ffffffffffffffff8082111561088f5761088f61084d565b604051601f8301601f19908116603f011681019082821181831017156108b7576108b761084d565b816040528381528660208588010111156108d057600080fd5b836020870160208301376000602085830101528094505050505092915050565b6000806000806080858703121561090657600080fd5b843567ffffffffffffffff8082111561091e57600080fd5b61092a88838901610863565b9550602087013591508082111561094057600080fd5b61094c88838901610863565b9450604087013591508082111561096257600080fd5b61096e88838901610863565b9350606087013591508082111561098457600080fd5b5061099187828801610863565b91505092959194509250565b6000602082840312156109af57600080fd5b813567ffffffffffffffff8111156109c657600080fd5b6109d284828501610863565b949350505050565b60005b838110156109f55781810151838201526020016109dd565b50506000910152565b60008151808452610a168160208601602086016109da565b601f01601f19169290920160200192915050565b602081526000825160a06020840152610a4660c08401826109fe565b90506020840151601f1980858403016040860152610a6483836109fe565b92506040860151915080858403016060860152610a8183836109fe565b9250606086015191508085840301608086015250610a9f82826109fe565b915050608084015160a08401528091505092915050565b60a081526000610ac960a08301886109fe565b8281036020840152610adb81886109fe565b90508281036040840152610aef81876109fe565b90508281036060840152610b0381866109fe565b9150508260808301529695505050505050565b600060208284031215610b2857600080fd5b5035919050565b602081526000610b4260208301846109fe565b9392505050565b60008251610b5b8184602087016109da565b9190910192915050565b600181811c90821680610b7957607f821691505b602082108103610b9957634e487b7160e01b600052602260045260246000fd5b50919050565b601f821115610beb576000816000526020600020601f850160051c81016020861015610bc85750805b601f850160051c820191505b81811015610be757828155600101610bd4565b5050505b505050565b815167ffffffffffffffff811115610c0a57610c0a61084d565b610c1e81610c188454610b65565b84610b9f565b602080601f831160018114610c535760008415610c3b5750858301515b600019600386901b1c1916600185901b178555610be7565b600085815260208120601f198616915b82811015610c8257888601518255948401946001909101908401610c63565b5085821015610ca05787850151600019600388901b60f8161c191681555b5050505050600190811b0190555056fea2646970667358221220fb1186113ea363dc4582b1bbed6a1e1de59fe5b5e9351b10017faa5eae41b38464736f6c63430008180033",
  "linkReferences": {},
  "deployedLinkReferences": {}
}